:020000040800F2
:10000000084A002061020008DD260008A52100083A
:100010006126000845060008952E00080000000033
:10002000000000000000000000000000C9010008FE
:10003000AF060008000000000D020008812A000839
:100040007B0200087B0200087B0200087B0200089C
:100050007B0200087B0200087B0200087B0200088C
:100060007B0200087B0200087B0200086106000892
:100070007B0200087B0200086D0600087906000874
:100080007B0200087B0200087B0200087B0200085C
:100090007B0200087B0200087B0200087B0200084C
:1000A0007B020008252B00087B0200087B02000869
:1000B0007B0200087B0200087B0200087B0200082C
:1000C0007B0200087B0200087B0200087B0200081C
:1000D0007B0200087B0200087B0200087B0200080C
:1000E0007B0200087B0200087B02000800F002F897
:1000F00000F05AF80AA090E8000C82448344AAF168
:100100000107DA4501D100F04FF8AFF2090EBAE865
:100110000F0013F0010F18BFFB1A43F0010318473B
:100120000C5500002C5500000A444FF0000C10F84C
:10013000013B13F0070408BF10F8014B1D1108BF65
:1001400010F8015B641E05D010F8016B641E01F805
:10015000016BF9D113F0080F1EBF10F8014BAD1C55
:100160000C1B09D16D1E58BF01F801CBFAD505E073
:1001700014F8016B01F8016B6D1EF9D59142D6D3CD
:10018000704700000023002400250026103A28BFF5
:1001900078C1FBD8520728BF30C148BF0B607047F9
:1001A0001FB51FBD10B510BD00F074F91146FFF763
:1001B000F7FF02F01FFF00F092F903B4FFF7F2FF20
:1001C00003BC00F095F90000224B19680868B0E8FC
:1001D000F00F80F30988BFF36F8F4FF0000080F3BA
:1001E00011884EF00D0E70470000000006480068B0
:1001F000006880F3088862B661B6BFF34F8FBFF323
:100200006F8F00DF00BF00BF08ED00E0EFF3098053
:10021000BFF36F8F0F4B1A6820E9F00F106008B51D
:100220004FF0500080F31188BFF34F8FBFF36F8FF3
:1002300003F04AFF4FF0000080F31188BDE808404A
:1002400019680868B0E8F00F80F30988BFF36F8F72
:10025000704700BFEC000020EFF3058070470000FE
:100260000948804709480047FEE7FEE7FEE7FEE74A
:10027000FEE7FEE7FEE7FEE7FEE7FEE70448054986
:10028000054A064B70470000212B0008ED000008CE
:1002900008400020084A00200842002008420020B0
:1002A00070B50446051F00F0BBF80068002C14BFB1
:1002B000446870BD002C18BFAC423CBF2046646847
:1002C000F8D301680A18AA4218BF456003D12A680A
:1002D00005461144016028684119A1421CBF6C60A9
:1002E00070BD6168696021680844286070BD032A98
:1002F00040F2308010F0030C00F0158011F8013B43
:10030000BCF1020F624498BF11F801CB00F8013B29
:1003100038BF11F8013BA2F1040298BF00F801CBED
:1003200038BF00F8013B11F0030300F07D80083A6C
:10033000C0F0088051F8043B083A51F804CBA0E81B
:100340000810F5E7121D5CBF51F8043B40F8043B70
:10035000AFF30080D20724BF11F8013B11F801CBA5
:1003600048BF11F8012B24BF00F8013B00F801CB76
:1003700048BF00F8012B704702F0FF0343EA032255
:1003800042EA024200F002B84FF000020429C0F035
:10039000128010F0030C00F01B80CCF1040CBCF1B7
:1003A000020F18BF00F8012BA8BF20F8022BA1EB09
:1003B0000C0100F00DB85FEAC17C24BF00F8012BEE
:1003C00000F8012B48BF00F8012B70474FF00002E6
:1003D00000B5134694469646203922BFA0E80C503B
:1003E000A0E80C50B1F12001BFF4F7AF090728BF16
:1003F000A0E80C5048BF0CC05DF804EB890028BF92
:1004000040F8042B08BF704748BF20F8022B11F0BA
:10041000804F18BF00F8012B704770477047704736
:1004200000487047B03F002010B5203AC0F00B8064
:10043000B1E81850203AA0E81850B1E81850A0E8E8
:100440001850BFF4F5AF5FEA027C24BFB1E8185042
:10045000A0E8185044BF18C918C0BDE810405FEAB2
:10046000827C24BF51F8043B40F8043B08BF70472E
:10047000D20728BF31F8023B48BF11F8012B28BF33
:1004800020F8023B48BF00F8012B70470048704736
:10049000A83F00207546FFF7F9FFAE460500694604
:1004A000534620F00700854618B020B5FFF7E6FE5A
:1004B000BDE820404FF000064FF000074FF0000865
:1004C0004FF0000B21F00701AC46ACE8C009ACE8E6
:1004D000C009ACE8C009ACE8C0098D46704710B54A
:1004E0000446AFF300802046BDE81040FFF765BE2C
:1004F00001491820ABBEFEE726000200704700004D
:1005000070B5044600688168C943C90717D181687E
:1005100021F00101816000F0D1FD05460AE000BF35
:1005200000F0CCFD401B022804D920688068C0433D
:10053000C00706D020688068C043C007F0D0002004
:1005400070BDA06A40F01000A062E06A40F00100B7
:10055000E062012070BD10B50146406A826A12F067
:10056000500F05D0006A026BBDE8104008461047E6
:10057000816A41F40071816201688968C1F3424176
:1005800007290CD1017B51B9816A21F48071816204
:10059000816AC90403D4816A41F00101816200F0DB
:1005A00007F910BD10B5406A816A41F040018162CF
:1005B000C16A41F00401C16200F00DF910BD10B52F
:1005C000406A00F007F910BDF8B500260446009611
:1005D00000688168C943C9072DD0816841F00101D5
:1005E0008160164816490068B0FBF1F000E0401E3B
:1005F00000900028FBD100F061FD054616E000BF29
:1006000000F05CFD401B022810D920688068C043C0
:10061000C0070BD0A06A40F01000A062E06A40F072
:100620000100E06284F824600120F8BD2068806841
:10063000C043C007E4D10020F8BD00001000002036
:1006400040420F00FEE710B54218891E32F8024CF6
:1006500002F06CFCA04201D1012010BD002010BDB1
:10066000014800F091BA00009C010020014800F010
:100670008BBA0000D4020020014800F085BA0000C7
:100680009002002030B590F840500124AC40C56B7A
:100690006C60046863604368102B036803D0996042
:1006A0000068C26030BD9A600068C16030BD7047AC
:1006B00072B6FEE7F8B50024009490F82420254691
:1006C000012A12D0012280F824204A681F23072A19
:1006D0000DD20668776B521E02EB820293409F4355
:1006E0000B6893401F43776319E00220F8BD06684A
:1006F0000D2A0AD2376BD21F02EB820293409F432E
:100700000B6893401F43376309E0F76A0D3A02EB29
:10071000820293409F430B6893401F43F7620A682D
:10072000072306680A2A0AD3F7680A3A02EB42024C
:1007300093409F438B6893401F43F76008E03769FD
:1007400002EB420293409F438B6893401F43376103
:100750000A68102A01D0112A20D1124B02689A424D
:1007600017D193681B0219D4936843F40003936074
:100770000968102912D10C490C4A0968B1FBF2F141
:1007800001EB8101490000E0491E00910029FBD1E5
:1007900004E0816A41F020018162012480F8245044
:1007A0002046F8BD002401401000002040420F0008
:1007B00010B500680449884205D1044800F068F982
:1007C00003490120087010BD002401406C01002085
:1007D00014000020704770472DE9F0414FF00007EA
:1007E00004003D467ED0A06A002628B9E66284F85F
:1007F0002460204600F07EF82046FFF781FEA16AC3
:10080000C90600D420B1A06A40F01000A06269E0DF
:10081000A16A21F4885141F00201A1626268E16994
:10082000237B0A4347EA43010A43A1684FF48077D8
:10083000B94209D0012907D05FF0000194F814C033
:10084000BCF1010F02D00AE03946F7E7F3B1A36A21
:1008500043F02003A362E36A43F00103E3622368E9
:10086000D3F804C02CF4694C4CEA010CC3F804C062
:1008700021688B68DFF870C003EA0C0313438B60B8
:10088000A168B9420BD0012909D00CE0DFF85CC0A7
:10089000A3690CEB43330B4343F40061DFE7218A88
:1008A0000D05A5F580152168CB6A23F470032B4351
:1008B000CB62216889680E4B1940914208D1E662EB
:1008C000A16A21F0020141F00101A162BDE8F081BD
:1008D000A06A20F0020040F01000A062E06A40F040
:1008E0000100E0620120F1E7FDF7E1FF00E0FFFF1A
:1008F000FE0E1FFF70B586B00025064600950195D7
:100900000295039500681A4988422ED119498869D1
:1009100040F400708861886900F400700490886970
:1009200040F0040088618869694600F00400049082
:1009300006200090032001900F4800F0C1FA104CEF
:100940000E48C4E900058020C4E90250400020613F
:10095000800060612020C4E90605204600F0BEF951
:1009600008B1FFF7A5FE3462666206B070BD0000F4
:10097000002401400010024000080140080002402D
:100980009C0100202DE9F047894604463B49006858
:100990003B4F0E1D9046884201D0B84207D13068C7
:1009A00010F4702F03D001252846BDE8F08794F895
:1009B000240001280CD0012084F824002046FFF7F1
:1009C00003FE05004FF0000004D084F82400EBE79C
:1009D0000220EAE7A16A40F60162914341F4807186
:1009E000A1622168B94218D1326812F4702F14D074
:1009F000A16A41F48011A1623168490505D5A16A57
:100A000021F4005141F48051A162A16AC9040AD5C0
:100A1000E16A21F00601E16206E0A26A22F4801296
:100A2000A2624968E9E7E06284F82400216A154877
:100A30008862216A1448C862216A144808632168E0
:100A40006FF0020008602068816841F48071816065
:100A5000216843464A464C31206A00F06DF920680F
:100A60008168C1F342410729816803D041F48011B4
:100A7000816099E741F4A001FAE7000000240140F9
:100A80000028014057050008BF050008A50500081B
:100A900010B5044690F82400012807D0012084F8FE
:100AA00024002046FFF72CFD10B113E0022010BDFA
:100AB00021688A6822F480728A60216A91F8212074
:100AC000022A07D1084600F00EF8A16A30B141F0C1
:100AD0004001A162002184F8241010BD21F4885146
:100AE00041F00101F5E710B590F82110002202292C
:100AF00005D00421816380F82020012010BD016809
:100B00000B6823F00E030B6001680B6823F00103F0
:100B10000B6090F84030C46B012101FA03F363606D
:100B200080F8211080F82020104610BD10B528B3A1
:100B300001680A6822F001020A600268002111605F
:100B400002685160026891600268D1600C4B0268D3
:100B500001241A441423B2FBF3F29300094AC0E9BA
:100B60000F239C4054608162C162016341638163D1
:100B700080F8211080F82010002010BD012010BD49
:100B8000F8FFFDBF000002402DE9F05FC16B0C686B
:100B900001680B68D0F840C0042202FA0CF2494DFB
:100BA000DFF824A1494E4A4FDFF828B1DFF828E1E9
:100BB00022422CD05A072AD50A68920603D40A6822
:100BC00022F004020A600168A94201D1042219E05E
:100BD000514501D1402215E0B14202D14FF480626B
:100BE00010E0B94202D14FF480420BE0594502D1E6
:100BF0004FF4802206E0714502D14FF4800201E0FB
:100C00004FF080622F4908394A60C16A3BE04FF0DB
:100C1000020808FA0CF818EA040F4FF000094FF028
:100C2000010235D05FEA837832D50B689B0605D484
:100C30000B6823F00A030B6080F821200168A942A9
:100C400001D1022219E0514501D1202215E0B14223
:100C500002D14FF4007210E0B94202D14FF40052B9
:100C60000BE0594502D14FF4003206E0714502D144
:100C70004FF4001201E04FF00072124908394A6047
:100C800080F82090816A00291AD0BDE8F05F0847FB
:100C9000082505FA0CF5254212D01B0710D50B6864
:100CA00023F00E030B6090F84010C36B02FA01F1C1
:100CB0005960826380F8212080F82090016BE2E780
:100CC000BDE8F09F080002401C00024030000240D6
:100CD00044000240580002406C00024030B528B386
:100CE00008C8134914221944B1FBF2F18900C16309
:100CF00010498163022141771A6843F6F0718A43F3
:100D0000D0E900142143D0E902452C432143046972
:100D1000214344692143846921431143196000211F
:100D20004163012242770177084630BD012030BD82
:100D3000F8FFFDBF0000024070B5044690F82000A7
:100D4000002501280CD0012084F8200094F82160AF
:100D50000020012E06D084F820000225284670BD10
:100D6000022070BD022684F82160A0632068066816
:100D700026F0010606602046FFF784FCE06A0028A2
:100D80002068016802D041F00E0106E021F0040164
:100D900001602068016841F00A0101602068016873
:100DA00041F001010160D9E72DE9F04300233E4FF6
:100DB0000F2573E001229A400A406DD023F003040E
:100DC000E619D6F808809C074FEA147C05FA0CF95E
:100DD00009EA0804DFF8D480404502D14FF000084A
:100DE00016E0DFF8CC80404502D14FF001080FE05B
:100DF000DFF8C080404502D14FF0020808E0DFF87C
:100E0000B880404502D14FF0030801E04FF00408DC
:100E100008FA0CF8A04522D1284CD4F800C02CEADE
:100E2000020CC4F800C0241DD4F800C02CEA020C47
:100E3000C4F800C0214C0C34D4F800C02CEA020CD9
:100E4000C4F800C0241FD4F800C02CEA020CC4F877
:100E500000C0D6F808C02CEA090CC6F808C0FF2A62
:100E600001D8064601E000F104064FEA830401D9E7
:100E7000A4F12004D6F800C005FA04F82CEA080C06
:100E80004FF0040808FA04F84CEA080CC6F800C051
:100E9000C46824EA0204C46003F1010331FA03F2D6
:100EA00088D1BDE8F0830000000001400008014047
:100EB000000C0140001001400014014000040140FA
:100EC0002DE9F84FDFF8B8910024A9F1040B23466F
:100ED0000F2709F1040AABF1040EC9E00125A54072
:100EE0002A40AA427DD1674ED1F804C0ACEB060877
:100EF000B44532D014DCBCF1030F3AD009DCBCF1AC
:100F0000000F2AD0BCF1010F1CD0BCF1020F31D16F
:100F10001DE0BCF1110F17D0BCF1120F2AD119E05E
:100F2000B8F5881F19D006DCB8F5803F15D0B8F5A4
:100F3000801F1FD111E0B8F5001F0ED0B8F5041FB7
:100F400018D10AE0CB6815E0CB681B1D12E0CB6816
:100F500008330FE0CB680C330CE08B682BB1012B0E
:100F60004FF0080303D0456104E0042302E005616B
:100F700000E00023FF2A01D8064601E000F1040644
:100F80004FEA840501D9A5F12005D6F8008007FABB
:100F900005FC28EA0C0803FA05F548EA0508C6F836
:100FA00000804D68ED0062D5374DAE6946F0010610
:100FB000AE61AD6924F0030605F001050095334DDF
:100FC00006EB050CDCF80850A607360F07FA06F802
:100FD00025EA0805DFF8B880404503D14FF0000846
:100FE00017E044E0DFF8AC80404502D14FF0010843
:100FF0000FE0DFF8A480404502D14FF0020808E07E
:10100000DFF89880404502D14FF0030801E04FF02F
:10101000040808FA06F848EA0508CCF808804D6884
:10102000D9F80060ED024D4601D5164300E0964325
:101030002E604D68DAF80060AD02554601D51643C2
:1010400000E096432E604D68DBF80060AD035D461E
:1010500001D5164300E096432E604D68DEF800602F
:10106000ED03754601D5164300E096432E60641CDF
:101070000D682A46E5407FF431AFBDE8F88F0000E7
:10108000080401400000111000100240000001405F
:1010900000080140000C0140001001400014014014
:1010A000C26821EA02030A4043EA02410161704733
:1010B0000AB1016170470904FBE70000014880683C
:1010C000704700000400002070B5040025D094F89B
:1010D0003D00002520B984F83C50204600F04EF930
:1010E000242084F83D002068016821F0010101609E
:1010F0002068016841F4004101602068016821F422
:101100000041016000F0B0FB4D4A6168914201D896
:101110004C4900E04C49884201D2012070BD4B4946
:101120002368B0FBF1F15E6826F03F060E435E6077
:101130006368934206D94FF4967359434FF47A7318
:10114000B1FBF3F12368491C1E6A26F03F063143C8
:1011500019626168914210D84900401EB0FBF1F25B
:10116000521CC2F30B02042A01D2042022E0B0FB7D
:10117000F1F0401CC0F30B001CE0A268F2B301EBDD
:10118000C10303EB0116431EB3FBF6F35B1C43F4F0
:1011900080431B0549D092B301EBC10202EB011160
:1011A000401EB0FBF1F0401CC0F30B0040F4804047
:1011B00040F400402168CA694CF6FF739A4310431B
:1011C000C861D4E9071001432068026822F0C00218
:1011D00011430160D4E9030101432068826848F2A9
:1011E000FF339A4311438160D4E905010843216824
:1011F000CA6822F0FF021043C86001E00EE016E06A
:101200002068016841F0010101602564202084F814
:101210003D00256384F83E50002070BD01EB41067F
:10122000431EB3FBF6F35B1CB3E70120C2E701EBFF
:101230004101401EB0FBF1F0401CC0F30B00B7E7CA
:10124000A086010080841E0000093D0040420F007E
:101250002DE9F84F1F4690468A460446DDF828904F
:10126000FFF72CFF054694F83D0020287FD1192375
:10127000012240492046009501F026F8002876D149
:1012800094F83C00012872D0012084F83C002068CA
:101290000168C90703D1016841F0010101602068BC
:1012A000016821F400610160212084F83D001020D4
:1012B00084F83E0000262664C4F824806785608D8B
:1012C00020852D48E0622B464A465146204600F0D4
:1012D00081FF90B9206841698069009036E02A4614
:1012E0004946204601F096F850B1206C042804D1FC
:1012F0002068016841F4007101600120BDE8F88FA9
:10130000606A216800780861606A401C6062618DD3
:10131000491E6185218D491E89B221852268536944
:10132000DB435B070BD451B100781061606A401C4D
:101330006062608D401E6085208D401E20852A469B
:101340004946204600F094FF0028CED1208D002889
:10135000C5D154F83D0B016841F4007101602020B3
:1013600004F81E09E67766770020C7E7FFE702204A
:10137000C4E70000020010000000FFFF10B586B0B7
:101380000021009101910291039100680F49884268
:101390001AD10F4CA06940F00800A061A06969460D
:1013A00000F008000490C02000901220019003205B
:1013B00003900848FFF784FDE06940F40010E06105
:1013C000E06900F40010049006B010BD0054004025
:1013D00000100240000C014002488168027811446C
:1013E0008160704704000020074810B5016841F093
:1013F00010010160032000F0A1F80F2000F006F8B2
:1014000000F04AF8002010BD0020024030B505462B
:101410001C4887B0816941F400618161806906A937
:1014200000F40060009001A800F0FEF900F02CFA32
:101430001549164AB0FBF1F11548491E026041609A
:1014400040F2E7320021C0E903218160816100F0B0
:1014500064FC040012D10E4800F08EFC04000DD193
:10146000192000F03DF8102D07D20022294619203E
:1014700000F044F80748056000E0012407B020466A
:1014800030BD00000010024040420F00002C01401F
:1014900018030020080000200F4808B5816941F0BA
:1014A00001018161816901F001010091C16941F08F
:1014B0008051C161C069002200F0805000900F216E
:1014C000901E00F01BF80548416821F0E06141F0F2
:1014D0000071416008BD00000010024000000140A2
:1014E000002809DB00F01F02012191404009800023
:1014F00000F1E020C0F8001170470000F0B40E4B7E
:101500001B680C46C3F30223C3F10705042D00D961
:101510000425191D072901D2002300E0DB1E012646
:1015200006FA05F1491E214099409E40761E16405C
:101530003143F0BC01F0AFBC0CED00E0064900F017
:10154000070208684FF6FF03184040EA0220034AEA
:1015500010430860704700000CED00E00000FA0541
:10156000014901200862704700000E4210B5014693
:101570000020234C012922D0022939D010291DD165
:1015800061682268D20119D51E48C1F38342C9039C
:10159000805C0AD561681B4AC1F34041921E515CD0
:1015A000194AB2FBF1F1484301E018494843616828
:1015B000490203D440000321B0FBF1F010BD226AC0
:1015C000C2F30121012903D1920701D5C80310BD3F
:1015D000022905D1626A920702D549F6404010BD42
:1015E0000329FCD121688903F9D54FF2244010BDAD
:1015F00000F04AF96168C1F38131491C4900DBE719
:1016000000100240CC4D000800127A0000093D0095
:101610002DE9F84305460078354CC00754D0E06901
:101620000026C00008D4E06940F08050E061E06925
:10163000012600F0805000902E480168C90512D4A0
:101640000168804641F480710160FFF737FD07466D
:1016500005E000BFFFF732FDC01B642823D8D8F88F
:101660000000C005F6D5206A10F4407021D0A9888A
:1016700001F4407181421CD0206A1F49012220F4EC
:1016800040700A6000220A602062C00711D0FFF794
:1016900015FD074641F2883808E000BFFFF70EFD50
:1016A000C11B414502D90320BDE8F883206A8007A9
:1016B000F4D5206A696820F44070084320621EB1A6
:1016C000E06920F08050E0612878800705D56068E7
:1016D000A96820F44040084360602878C00605D51A
:1016E0006068E96820F48000084360600020DBE760
:1016F0000010024000700040400442422DE9F047D3
:101700000F46050061D0434E306800F00700B84234
:1017100009D2306820F0070038433060306800F0AC
:101720000700B84251D128683B4C810712D54007C9
:1017300003D5606840F4E06060602878000703D556
:10174000606840F4605060606068A96820F0F00054
:10175000084360602878C00728D06868012810D046
:101760002168022810D0890700292EDA616821F04B
:10177000030101436160FFF7A1FC804641F2883913
:101780000DE021688903EFE78901EDE7FFF796FC9B
:10179000A0EB0801494502D90320BDE8F087606845
:1017A000696800F00C00B0EB810FEFD1306800F0F9
:1017B0000700B8420BD9306820F00700384330608A
:1017C000306800F00700B84201D00120E5E7287832
:1017D000400705D56068E96820F4E0600843606070
:1017E0002878000706D56068296920F4605040EA2F
:1017F000C100606000F058F86168084AC1F3031145
:10180000515CC8400649086006480068FFF7FEFDC5
:101810000020C2E70020024000100240DC4D00081A
:1018200010000020080000200F2202600C4A5368BC
:1018300003F003034360536803F0F00383605368CD
:1018400003F4E063C36052684FF4E06303EAD2023A
:1018500002610448006800F007000860704700005B
:101860000010024000200240044805490068496811
:10187000044AC1F30221515CC840704710000020A7
:1018800000100240EC4D0008044805490068496812
:10189000044AC1F3C221515CC840704710000020C7
:1018A00000100240EC4D00080E4A51680E4801F04D
:1018B0000C03042B11D0082B0FD10C48C1F3834328
:1018C000C903C05C0AD55168084AC1F34041921E61
:1018D000515C054A5043B0FBF1F07047044948435E
:1018E000704700000010024000127A00BA4D000854
:1018F00000093D002DE9F84F040070D02078C04D5C
:10190000C00749D06868C0F38100012807D0686823
:10191000C0F38100022809D16868C00306D5286891
:10192000800339D560680028E7D035E06068B0F5FD
:10193000803F0BD010B1B0F5A02F11D0286820F453
:1019400080302860286820F4802002E0286840F475
:1019500080302860606890B1FFF7B0FB06460AE06F
:10196000286840F480202860F0E700BFFFF7A6FB5E
:10197000801B642873D828688003F7D50CE0FFF734
:101980009DFB064605E000BFFFF798FB801B64281F
:10199000F0D828688003F7D420789A4E80074FF05B
:1019A00001094FF0000839D5686810F00C0F07D016
:1019B0006868C0F38100022809D16868C00306D4B2
:1019C0002868800714D52069012808D110E0206913
:1019D000B0B1C6F80090FFF771FB074605E00AE1D9
:1019E000FFF76CFBC01B0228C4D828688007F7D516
:1019F0002868616920F0F80040EAC10028600DE025
:101A0000C6F80080FFF75AFB074604E0FFF756FBD5
:101A1000C01B022823D828688007F7D42078000745
:101A20002CD57948A169D9B1C0F80090FFF746FBE1
:101A3000074604E0FFF742FBC01B02280FD8686A84
:101A40008007F7D571484FF4FA510068B0FBF1F008
:101A5000009000BF0098411E0091FAD20EE080E095
:101A6000C0F80080FFF72AFB074604E0FFF726FBDB
:101A7000C01B022875D8686A8007F7D42078400711
:101A800060D5E8690027C00008D4E86940F08050BC
:101A9000E861E869012700F0805000905C48016827
:101AA000C90513D40168834641F480710160FFF7D2
:101AB00005FB824606E000BFFFF700FBA0EB0A0033
:101AC00064284ED8DBF80000C005F5D5E068012891
:101AD0000AD008B1052813D0286A20F00100286236
:101AE000286A20F0040002E0286A40F00100286221
:101AF000E06841F2883B98B1FFF7E0FA82460BE0DC
:101B0000286A40F004002862EEE700BFFFF7D6FA2B
:101B1000A0EB0A0159455AD8286A8007F6D50CE08F
:101B2000FFF7CCFA824605E0FFF7C8FAA0EB0A01FE
:101B300059454CD8286A8007F6D41FB1E86920F0CF
:101B40008050E861E06988B36968C1F381010229C6
:101B500044D00228C6F8608004D0FFF7AFFA0446EC
:101B600038E034E0FFF7AAFA074604E0FFF7A6FAE8
:101B7000C01B02282BD828688001F7D4206AB0F552
:101B8000803F05D16868A16820F400300843686090
:101B9000D4E908010843696821F4741108436860B6
:101BA000C6F86090FFF78AFA044606E025E000BF19
:101BB000FFF784FA001B022809D828688001F7D5AE
:101BC0001BE000BFFFF77AFA001B022802D90320AE
:101BD000BDE8F88F28688001F4D40EE00128F7D022
:101BE0006868226A00F48031914204D1616A00F48D
:101BF0007010884201D00120EAE70020E8E70000E9
:101C000000100240000042428004424210000020C6
:101C10000070004070B5040003D0607C002610B155
:101C200005E0012070BD2674204600F03DF802203A
:101C30006074204600F052F8042550BB204600F0A6
:101C4000B1FE30BB2068416821F007014160A06807
:101C500020B11448016821F0010101601148001F02
:101C60000168A26821F46071114301606068411C41
:101C700004D10120FFF77AFC58B1401E2268C0F35E
:101C800003419160216880B2C860204600F0A4FE44
:101C900008B16574C5E7E67301206073A0736074D2
:101CA000002070BD306C004008B5006808498842CB
:101CB0000DD1FFF755FC0748C16941F00061C161D2
:101CC000C069054900F0006000900120086008BD6F
:101CD00000280040001002403C04424270B504005D
:101CE0000AD02068416821F008014160FFF7E6F959
:101CF00005464FF47A7608E0012070BDFFF7DEF963
:101D0000401BB04201D9032070BD20684068000725
:101D1000F4D5002070BD7047704710B5040003D0A3
:101D200094F83D0010B107E0012010BD002084F8B8
:101D30003C00204600F01EF8022084F83D00211DE2
:101D4000206800F0F5FE012084F8460084F83E008B
:101D500084F83F0084F8400084F8410084F8420091
:101D600084F8430084F8440084F8450084F83D007A
:101D7000002010BD7047000090F83D10012901D0EF
:101D800001207047022180F83D100168CA6842F0C6
:101D90000102CA6000680B49884208D0B0F1804F48
:101DA00005D00949884202D00849884204D1816897
:101DB00001F00701062903D0016841F0010101602B
:101DC00000207047002C0140000400400008004043
:101DD00070472DE9F04104460068C66805694FF078
:101DE0000007A90713D5B10711D5F91E016101201C
:101DF0002077206880698007204602D0FFF7E8FF3F
:101E000004E000F07EF8204600F07CF827776807B1
:101E100016D5700714D521686FF004000861022000
:101E200020772068806910F4407F204602D0FFF7B9
:101E3000CFFF04E000F065F8204600F063F8277754
:101E4000280715D5300713D521686FF00800086101
:101E5000042020772068C0698007204602D0FFF761
:101E6000B7FF04E000F04DF8204600F04BF827776C
:101E7000E80616D5F00614D521686FF01000086149
:101E8000082020772068C06910F4407F204602D0E7
:101E9000FFF79EFF04E000F034F8204600F032F82F
:101EA0002777E80708D0F00706D021686FF0010017
:101EB0000861204600F028F8280608D5300606D527
:101EC00021686FF0800008612046FFF724FF680654
:101ED00008D5700606D521686FF0400008612046DD
:101EE00000F01CF8A8060AD5B00608D521686FF0E6
:101EF000200008612046BDE8F041FFF70DBFBDE8B6
:101F0000F08170477047000000680349884201D1A2
:101F1000FFF762BA70470000002C0140704770471D
:101F200010B5040015D0242084F841002068C16851
:101F300021F40051C160204600F060F80020606488
:101F400084F8410084F8420044F8300F6060207447
:101F500010BD012010BD000010B5044600680C49FA
:101F6000884213D1616C6FF00F0101602046FFF7CA
:101F7000D7FF00F059FB074880224168204600F057
:101F8000C3F82068C16841F01001C16010BD0000B5
:101F900000380140E000002070B5040004D094F83F
:101FA0004100002510B106E0012070BD84F84050CA
:101FB000204600F043F8242084F841002068C168DE
:101FC00021F40051C160204600F0C0FE2068016984
:101FD00021F4904101612068416921F02A014161A9
:101FE0002068C16841F40051C1606564202084F814
:101FF000410084F842006563002070BD10B50446BE
:1020000000680B49884211D10A48816921F4804156
:1020100081614FF4C0610848FEF7C6FEE06BFEF731
:1020200085FDA06BBDE81040FEF780BD10BD00002F
:10203000003801400010024000080140F0B585B0B2
:1020400000240646009401940294039400682949F0
:1020500088424DD12848816941F48041816181697C
:1020600001F480410491816941F00401816180693A
:10207000224D00F0040004904FF400700090022004
:1020800001900320039069462846FEF719FF2815A2
:10209000CDE90004694628460294FEF711FF194D68
:1020A00017488027C5E90004C5E9024720202C61B4
:1020B000C5E905402846EC61FEF710FE08B1FEF7C1
:1020C000F7FAF5636E620F4D0D484435143801C5BB
:1020D000102091C50B4845F8104944306C61AC6143
:1020E000EC61FEF7FBFD08B1FEF7E2FAB5636E6244
:1020F00005B0F0BD0038014000100240000801406A
:10210000580002409002002090F84230202B01D06D
:102110000220704721B11AB10023036300F072BEA0
:10212000012070477047704770B5044690F8410031
:10213000202801D0022070BD49B342B32162A2849D
:10214000E28400206064212384F84130A56B114BA8
:10215000AB62A56B104BEB62A56B104B2B63A36BB3
:102160005863256813462A1DA06BFEF7E5FD21681C
:102170006FF0400008602068143050E8001F41F004
:10218000800140E80012002AF5D1002070BD012036
:1021900070BD0000972C0008D92C0008A92B00085E
:1021A00070477047FEE701684A69D24352050FD471
:1021B0006FF480624A61002140F8301F2022427390
:1021C0008173026942F004020261017301207047C9
:1021D00000207047F8B50446C06A1E460D461746F3
:1021E000082807D0012805D010F5803F02D0206BC9
:1021F000122804D12068016841F4807101601346FF
:1022000000224FF001112046009600F05DF840B129
:1022100020680068C00502D54FF4007020640320D8
:10222000F8BD2069B0F5804F0ED00620216800EA85
:10223000D51040F0F000086133463A460B4920467D
:1022400000F08AF878B902E005F0FE0000E0E8B29C
:1022500021680861054933463A46891F204600F047
:102260007BF80028DCD00120F8BD00000800010048
:1022700070B516460D4604461EE02046FFF793FF54
:1022800008B1012070BD681C16D0FEF717FF801B37
:10229000A84200D885B920684069C04340070BD5E3
:1022A000002044F8300F20216173A073216941F0B0
:1022B000200121612073E4E720684069C0434007A2
:1022C000DBD4002070BD00002DE9F047984617468A
:1022D0000D460446C1F30746DDF820902AE000BF12
:1022E000B8F1FF3F26D0FEF7E9FEA0EB090141451A
:1022F00002D8B8F1000F1DD12068012E16D08069D8
:1023000025EA00000004000C12D00020B84211D1D0
:10231000002044F8300F20216173A073216941F03F
:102320002001216120730120BDE8F0874069E7E7C3
:102330000120EBE72068012E0AD0806925EA000021
:102340000004000C06D00020B842C9D00020EBE702
:102350004069F3E70120F7E72DE9F0479846164674
:102360000D4604464FF000094FF0200AC1F307471D
:1023700023E020684069C043400515D42068016807
:1023800041F40071016021686FF480604861C4F815
:10239000309084F83DA084F83E90216C41F0040117
:1023A000216484F83C9021E0701C06D0FEF786FE84
:1023B000A0EB0800B04203D816B1012F1FD021E0D6
:1023C0002068012F15D0806925EA00000004000C68
:1023D00018D000BF44F8309F84F80DA084F80E9008
:1023E000216941F02001216184F80C900120BDE8B1
:1023F000F087406925EA00000004000CEAD120685B
:10240000406901E02068806925EA00000004000CB2
:10241000AFD1ECE770B516460D4604461EE02046E7
:10242000FFF7C1FE08B1012070BD681C16D0FEF791
:1024300045FE801BA84200D885B920684069C0438A
:1024400000060BD5002044F8300F20216173A073E3
:10245000216941F0200121612073E4E7206840698F
:10246000C0430006DBD4002070BD00003EB5002450
:102470001548009401941349029401608915816004
:1024800004730475022505614FF460214460C16145
:10249000FEF7A2F908B1FEF70BF901200090CDE993
:1024A000010469460848FEF705F908B1FEF700F98E
:1024B000694605480195FEF7FDF8002801D0FEF7B2
:1024C000F7F83EBD002401406C010020114808B51A
:1024D000416941F0010141614069002200F00100C1
:1024E000009005210B20FFF709F80B20FEF7F8FFFD
:1024F000002205210E20FFF701F80E20FEF7F0FF65
:10250000002205210F20FEF7F9FFBDE808400F204B
:10251000FEF7E6BF0010024010B5044A002104484F
:1025200000F040FE0349086010BD0000944D000813
:10253000652A00080000002030B585B000241C4842
:102540000094019402940394816941F01001816127
:10255000816901F010010491816941F020018161DC
:10256000816901F020010491816941F004018161D8
:10257000816901F004010491816941F008018161E0
:1025800080690C4D00F008000490002208212846C4
:10259000FEF78EFD082000900120CDE90104022005
:1025A000039069462846FEF78BFC05B030BD00005D
:1025B00000100240000801400D4810B50B490160B1
:1025C0000C49416000214FF480428160C0E9031250
:1025D00041618161C1610162FEF776FD002803D08F
:1025E000BDE81040FEF764B810BD00000054004084
:1025F000E0010020A08601000A4810B508490160EA
:102600004FF0FF3141604FF480718160FFF702FBB2
:10261000002803D0BDE81040FEF74AB810BD000006
:1026200000280040340200200C4810B50A4901601F
:102630004FF4E1314160002181600C22C160C0E9AA
:1026400004128161C161FFF7A7FC002803D0BDE837
:102650001040FEF72DB810BD0038014048020020A0
:10266000FEE7000008B506480090002301224FF461
:102670007A7104A002F0F8FA0549086008BD00006C
:10268000C92600084144435F54696D65720000002B
:10269000DC00002038B50B4C206820B9FFF7E2FFC2
:1026A000206800280DD002F05DFB002809D102F05F
:1026B0005BF902460020034600900121206802F0E9
:1026C0001DFB38BDDC000020034800231A461946D4
:1026D000006801F03BBE0000C8000020FEE70000DB
:1026E0004FF480610148FDF74FBE00000106002055
:1026F000F0B50B4424E0044685181DE07F2C19D862
:10270000002917DB3F2915DCCE1701EB56764FEA7F
:10271000E60C0D4F26F0070607EBCC172744A1EB7C
:10272000060E97F800C0012606FA0EF62CEA060CF3
:1027300087F800C0641C24B2A542DFDC491C09B242
:102740008B42D8DCF0BD00000106002010B5AE20A1
:1027500000F05EF8D52000F05BF8802000F058F81B
:10276000A82000F055F83F2000F052F8D32000F0E8
:102770004FF8002000F04CF8402000F049F8A1206C
:1027800000F046F8C82000F043F8DA2000F040F8E6
:10279000122000F03DF8812000F03AF8CF2000F040
:1027A00037F8D92000F034F8F12000F031F8DB20C0
:1027B00000F02EF8302000F02BF8A42000F028F8CC
:1027C000A62000F025F88D2000F022F8142000F05B
:1027D0001FF8AF2000F01CF8FFF782FFBDE81040A3
:1027E00000F0BEB80246012000E05043491EFCD272
:1027F0007047000008B54FF0FF3200920B460246CA
:1028000078210248FEF724FD08BD0000E001002009
:102810000249487002210148FFF7ECBF2200002066
:1028200008B5082B0DD0062B0AD10A4B02EB420249
:1028300003EB4202C03A00920823062200F00EF891
:1028400008BD054B03EB0212A2F5007210230092A3
:102850000822F3E7E4530008F44D00082DE9F04F97
:102860001F4616460D4682460024FFF741FF7F1E95
:10287000F81707EB50700121DFF898B001EBE00783
:1028800043E000203DE000BF0AEB00037F2B36D879
:10289000E91705EB5171CA1021F00701691A002DE3
:1028A00003DA521E083112B209B202EB0409B9F17F
:1028B000070F0ED8099A04FB06F802440BEBC91E59
:1028C00018F802201EF803C08A404CEA020C0EF8E9
:1028D00003C009F10102072A11D80BEBC91202EB60
:1028E0000308099A04FB06FC024498F880301CF89F
:1028F0000220C1F10801CA40134388F88030401C0F
:10290000C0B2B042C0D3641CE4B2A742B9DCBDE897
:10291000F08F0000010600202DE9F04700241D463D
:1029200090468A4681460A27089E14E0291B0A2001
:10293000491EFFF757FFB8FBF0F0B0FBF7F107FBBC
:10294000110204FB069000B2334651463032FFF7C5
:1029500067FF641CE4B2AC42E8D3BDE8F087000036
:1029600070B50F4D40200024287005F1810600BF8E
:1029700004F1B000C0B2FFF74BFF1020FFF748FF93
:1029800006EBC4118022681CFDF7B1FC81210448CC
:10299000FFF730FF641CE4B2082CE9D370BD0000DF
:1029A0008005002070B50446FEF788FB05464FF40D
:1029B0007A7606E0FEF782FB401BB04201D9032085
:1029C00070BD206840688006F4D52068416841F0F9
:1029D00010014160002070BD70B504460068416878
:1029E00021F010014160FEF769FB05464FF47A764D
:1029F00007E000BFFEF762FB401BB04201D9032095
:102A000070BD206840688006F4D5002070BD0000CD
:102A100010B51249012001F0F3FB114C03220021F3
:102A20002060012001F0F9FB6060032200210120F9
:102A300001F0F3FBA060002211210A2001F0EDFB60
:102A4000E06000220821052001F0E7FB2061002260
:102A50000821052001F0E1FB606110BD040A00209F
:102A6000C4000020012000F062FBFBE70248802246
:102A700041680248FFF748BBE00000204802002000
:102A800010B54FF0E020006901F060FF012803D08D
:102A9000BDE8104001F09EBB10BD30B593B02821B9
:102AA0006846FDF793FC14210AA8FDF78FFC00246B
:102AB0000F940920012110940090119412944FF466
:102AC000803004910691CDE901040225CDE907503B
:102AD0004FF4E01009906846FEF70CFF08B172B69B
:102AE000FEE70F20CDE90A054FF48060CDE90C40E8
:102AF00002210AA80E94FEF701FE08B172B6FEE7A5
:102B000003200F904FF400701090800111900FA8D7
:102B1000FEF77EFD002801D072B6FEE713B030BD8F
:102B2000704700000148FFF754B900001803002067
:102B3000F0B50268194B1A4C1A4D4FF08047984275
:102B400005D0B84203D0A04201D0A84203D122F060
:102B500070064A683243984205D0B84203D0A0427A
:102B600001D0A84203D122F44074CA6822434C69C0
:102B700022F08002224302608A68C2620A6882628E
:102B8000984201D109690163012141610169C907C5
:102B900003D0016921F001010161F0BD002C014069
:102BA000000400400008004070B5446A2068406995
:102BB00094F84110C0F3C0100025212904D118B1A8
:102BC000E584204600F0B4F82068406994F842108B
:102BD000C0F38010222904D118B1E585204600F009
:102BE00080F8606C40F0100060642046FFF7B4F994
:102BF00070BD10B50146406A096809684FF00002CF
:102C000089062ED4C28501680C3151E8003F23F4B7
:102C1000807341E80034002CF5D10168143151E88B
:102C2000003F23F0010341E80034002CF5D1016896
:102C3000143151E8003F23F0400341E80034002CF8
:102C4000F5D1202180F84210016B012909D10168DA
:102C50000C3151E8003F23F0100341E80034002C10
:102C6000F5D14263016B012902D0FFF75BFA10BD79
:102C7000818DFFF754F910BD10B5406A0121416301
:102C8000016B012902D0FFF74EFA10BD818D490872
:102C9000FFF745F910BD10B50146406A096809689B
:102CA000890616D40021C1840168143151E8002F2F
:102CB00022F0800241E80023002BF5D101680C319D
:102CC00051E8002F42F0400241E80023002BF5D1EB
:102CD00010BDFFF765FA10BD10B5406AFFF761FA45
:102CE00010BD01680C3151E8002F22F4907241E8C8
:102CF0000023002BF5D10168143151E8002F22F098
:102D0000010241E80023002BF5D1016B012909D113
:102D100001680C3151E8002F22F0100241E8002335
:102D2000002BF5D1202180F842100021016370476B
:102D300001680C3151E8002F22F0C00241E8002365
:102D4000002BF5D1202180F84110704770B5044662
:102D500000680169E26821F4405111430161216971
:102D6000A0680843616908432168CA6841F20C639E
:102D70009A430243CA6020684169A26921F4407104
:102D8000114341611E492068884202D1FEF77CFD53
:102D900001E0FEF769FD00EBC00101EB0012606885
:102DA00064218000B2FBF0F3B3FBF1F36FF018067F
:102DB0007343B2FBF0F5B2FBF0F605EB830532236B
:102DC00003EB0515B5FBF1F5B6FBF1F605F0F005E3
:102DD00005EB0615B2FBF0F6B2FBF0F0B0FBF1F03C
:102DE0006FF01802504306EB800003EB0010B0FBBD
:102DF000F1F0216800F00F002844886070BD0000E9
:102E00000038014038B581620446828500201346AF
:102E10006064222284F84220E56B1B4AAA62E56BBB
:102E20001A4AEA62E56B1A4A2A63E26B50630A4661
:102E30002168E06B091DFDF77FFF2068016840688D
:102E40000090206948B120680C3050E8001F41F420
:102E5000807140E80012002AF5D12068143050E853
:102E6000001F41F0010140E80012002AF5D120685E
:102E7000143050E8001F41F0400140E80012002AE1
:102E8000F5D1002038BD0000F32B0008792C000894
:102E9000A92B0008FEE70907090E002804DB00F152
:102EA000E02080F80014704700F00F0000F1E020EF
:102EB00080F8141D704700002DE9F0478246C81DB8
:102EC000C7B2552018700020DFF858800D465870A2
:102ED000411E1C469146D8F8000001F0E3FB124E5B
:102EE00000231A463078A070401C30701946D8F87C
:102EF000000001F02BFAE57084F804902A46514650
:102F0000601DFDF7F4F9681D7070691D204600F022
:102F10000DF87278010AA15471782144487038463E
:102F2000BDE8F087C40000202000002070B50D4EE1
:102F300005460C46306820B90B4800F041F80120E6
:102F400030604FF6FF700022074B08E0A95C521C6E
:102F500081EA102133F8111081EA002080B2A242E8
:102F6000F4D370BD1C000020600300207CB5124C1F
:102F70004FF0FF36114D0FE00098009940798979A4
:102F8000012806D181B1012910D008212046FEF781
:102F900087F80098FDF784F932466946286801F001
:102FA000E5FA0128E8D07CBD012200E000220821DA
:102FB0002046FEF77DF8ECE700080140D80000202D
:102FC00070B541F2210500224FF6FF7404EA022198
:102FD00000230E0403D585EA410189B201E004EA29
:102FE00041015B1C082BF4DB20F81210521CFF2A55
:102FF000ECD970BDFEF7F8F9FFF74FFDFFF79CFA2B
:10300000FFF764FAFFF710FBFFF7F6FAFFF7D4FAC1
:10301000FFF72CFA00F05AF800F096F8FFF77CFA68
:1030200000F0A4F8FEE70000DFF890A0244C88B080
:103030004FF0FF394E464946DAF8000001F032FB06
:103040000128F7D1002020701D490222891C1D484B
:10305000FDF798FC02E0012000F03AFF20780028FC
:10306000F9D0B146164E0025174FB61C4FF0080890
:1030700036F8150001AB010A8DF818108DF819000B
:10308000681CC2B2032106A8FFF716FF8DF81400D2
:1030900000234A4601A9386801F058F9CDF80080AC
:1030A00062780323501C607010210120FFF734FC6C
:1030B000FFF756FC6D1C022DDADBBBE7C8000020D1
:1030C000140000206C010020D000002010B5FFF794
:1030D0003DFBFFF7DFFAFFF7C9FCFFF799FC074854
:1030E00000F014F8064800F011F8064800F00EF859
:1030F000BDE81040044800F009B800002800002096
:103100004C00002070000020940000201CB560B12D
:10311000046854B1D0E90712CDE90012828A011D7A
:103120008369204601F0B4FB1CBD00201CBD10B516
:10313000EFF3058111B16FF0050403E0002408B13D
:1031400000F0C6FE204610BDEFF3058010B16FF011
:10315000050070470448016811B14FF0FF30704717
:1031600001210160002070473C01002010B5EFF301
:10317000058010B16FF0050010BD084801680129F5
:1031800002D04FF0FF3010BD054A002182F8141D17
:103190000221016000F04CFF002010BD3C01002026
:1031A0000BE000E02DE9FF414FEA01034FF000057D
:1031B000EFF30581039549BB40B380271821002414
:1031C0004AB3166806B1344696691EB13146761E7A
:1031D000382E02D21679F60703D0002004B0BDE8DD
:1031E000F081566906B1B708D2F808C0BCF1000FEB
:1031F0000DD0D5685C2D18D312693AB136B18DE87F
:1032000006103A46214601F070FB03900DE0D668A7
:103210005EB912694AB903AACDE90012BAB22146D1
:1032200001F036FB012800D003950398D6E7000093
:103230002DE9F041134C0F460546E6682068001D55
:1032400000F012FD681C07D137B12168BDE8F041DC
:103250000D48091D00F058BD20683544B542456051
:10326000216805D2A06BBDE8F041091D00F034BD16
:10327000606B091D00F030FDA06A854200D2A56296
:10328000BDE8F081EC000020C40F00202DE9F041E2
:10329000054600F045FD2D4CA068401CA06020684C
:1032A0002B4F10B1606930B32BE02560A068012876
:1032B00027D1002606EB860007EB800000F0FEFC1D
:1032C000761C382EF6D3234800F0F8FC2148143041
:1032D00000F0F4FC1F48283000F0F0FC1D483C30A2
:1032E00000F0ECFC1B48503000F0E8FC194860632B
:1032F0001430A06305E02068E96AC06A884200D8FB
:103300002560606A401C60626864E86A21698842DE
:1033100000D9206100EB800007EB8000291D00F040
:10332000F3FC00F01DFD606900280CD02068E96AFC
:10333000C06A884207D208494FF080500860BFF346
:103340004F8FBFF36F8FBDE8F0810000EC000020CD
:10335000140B0020740F002004ED00E038B500F0DD
:10336000DFFC104C2068C8B90F4800F0A7FC0E48DD
:10337000143000F0A3FC0C48E060143020610A4BCC
:103380000020F03B009003F1500210210A2000F0D1
:1033900065FF206010B105A100F064FDBDE8384074
:1033A00000F0DEBC28010020C8100020546D7251CE
:1033B0000000000030B4026C0B46002A0BD0C1683C
:1033C0001144C1608468A14201D30168C16030BC6E
:1033D0001846FCF78CBF30BC70472DE9F041856B77
:1033E000174604460026026C82B1C7B1E068FCF7BC
:1033F0007EFFE168206C091AE1602268914202D2E6
:10340000A168081AE060022F16D017E02068A8B95A
:10341000A06801F013FB06460020A0600EE0606883
:10342000FCF765FF216C606808446060A168884211
:1034300004D32068606001E005B16D1E6D1CA563BA
:103440003046BDE8F08110B5044690F8590058B1F7
:1034500001280CD002280FD0502080F31188BFF330
:103460004F8FBFF36F8FFEE7206B00F08DFC20467F
:10347000BDE8104000F088BC10BD000010484FF4BB
:103480002051420706D0C01D0D4920F00700411A07
:10349000C1F520510B4A00230144C2E90003083959
:1034A000183A21F0070111604B600B600B1AC0E95C
:1034B000001393604FF0004053605061704700006C
:1034C000A817002058010020144E154CA6F29C4766
:1034D0004FF08058DFF84C9012E000BF00F020FC65
:1034E000F068C568281D00F0BFFBA068401EA06002
:1034F0006068401E606000F033FC2846FFF7A3FFC1
:1035000060680028EAD138680128F9D9C9F8008034
:10351000BFF34F8FBFF36F8FF2E70000B00F0020B3
:10352000EC00002004ED00E0002807D000218160BD
:1035300001600B460A46C16000F008BF70470000FA
:1035400070B51D46049C51B1C4F80020C4E90F01B8
:103550000121204600F0B6FE84F84C5070BD246076
:10356000F4E700002DE9F05F8846DDE90B9415468D
:10357000834691009A460A9EA522206BFCF7FCFE2A
:103580006FF00301206B01EB8501084420F0070771
:10359000780707D0502080F31188BFF34F8FBFF317
:1035A0006F8FFEE70025B8F1000F0FD05FF000002D
:1035B000221818F8001082F8341018F8001011B111
:1035C000401C1028F4D384F8435001E084F83450B0
:1035D000382E00D33726E662C4E91365201D00F0BB
:1035E00078FB04F1180000F074FB2461C6F1380088
:1035F0006462A061656584F8585052465946384661
:1036000000F08EFA2060B9F1000F01D0C9F8004037
:10361000BDE8F09F2DE9F0471E46DDE90894174606
:103620000D00804615D0002C11D0FFF797FE04F155
:103630001801C4F8008081E86002201D00F049FBF9
:10364000002F04D014F8280F40F004002070BDE8CB
:10365000F087502080F31188BFF34F8FBFF36F8F37
:10366000FEE7000030B5114900E011460A688242C9
:10367000FBD34B685C18844203D14068184448600F
:10368000084643681C18944209D1084C183C246829
:10369000A24209D052681A4442600A681268026065
:1036A000814200D0086030BD0460F9E75801002075
:1036B00070B5002441600B4D0061914206D8D11ACB
:1036C0008269914206D2011D286907E09A4203D21D
:1036D000994201D3012403E0011DE86800F0FCFADF
:1036E000204670BD2801002010B5044600F018FBEC
:1036F000A06B28B15FF0000400F032FB204610BD43
:103700000124F9E730B589B03C4D6EE004980028FB
:1037100006DADDE90601059A90470498002864DB83
:10372000069C606910B1201D00F09EFA03A800F00D
:10373000D7F8024604980A2857D2DFE800F00505BA
:10374000052D334A05052D3394F8280040F001007B
:1037500084F828000599A069059B01442046FFF7DD
:10376000A7FF68B3216A2046884794F828004007DD
:103770003BD5002000900598A16900234218194606
:10378000204601F0BBFAD8B9502080F31188BFF36E
:103790004F8FBFF36F8FFEE714F8280F20F0010062
:1037A000207022E094F8280040F0010084F82800FE
:1037B0000598A06128B1811813462046FFF778FFCD
:1037C00013E0502080F31188BFF34F8FBFF36F8F4A
:1037D000FEE794F82800810703D4204600F0D4FACD
:1037E00003E020F0010084F82800002204A92868E2
:1037F00000F0BCFE002889D109B030BD28010020AE
:103800002DE9FC410F46054600F056FC01A800F0EA
:1038100067F80446019818B101F0C4F9BDE8FC81CD
:10382000254EAFB130690068D0B30027291B3A4656
:10383000306800F02BFB01F0B5F90028EED11F49EC
:103840004FF080500860BFF34F8FBFF36F8FE5E7F5
:10385000A542EBD801F0A6F9F0682746C068C46815
:10386000201D00F001FA94F82800410719D5A0693D
:103870002B4641193A462046FFF71AFFA8B100200F
:103880000346014600902A46204601F037FA60B907
:10389000502080F31188BFF34F8FBFF36F8FFEE787
:1038A00007E020F0010084F82800216A20468847BC
:1038B000B4E70127BAE700002801002004ED00E08A
:1038C0000648416B096829B1416BC968C9684968F4
:1038D000816270474FF0FF31FAE70000EC000020F2
:1038E00070B5054601F040F8064E0446B0688442C3
:1038F00003D200F009F8012000E0002028602046F3
:10390000B46070BD28010020F8B5194D20E0C068F2
:10391000C4680668201D00F0A7F9216A2046884780
:1039200094F82800400713D5A0693044B04206D966
:1039300024616060211DE86800F0CEF908E00020F5
:103940000346014600903246204601F0D7F938B1CF
:10395000E86801680029DAD12969C5E90310F8BDD2
:10396000502080F31188BFF34F8FBFF36F8FFEE7B6
:103970002801002008484068401C4FF0500080F3A8
:10398000118804D0BFF34F8FBFF36F8FFEE7BFF3F3
:103990004F8FBFF36F8FFEE760010020074CE06898
:1039A000016841B1C0680021D0F80000FFF728FF8E
:1039B000FFF7A8FEF3E701210020F7E72801002028
:1039C0002DE9F041044600F0ABF994F9455004F1BB
:1039D000240609E0606A48B1304601F0ABF808B14E
:1039E00000F0A4FA6D1E6DB2002DF3DC4FF0FF362F
:1039F00084F8456000F0B4F900F092F994F944506D
:103A000004F1100709E0206948B1384601F092F846
:103A100008B100F08BFA6D1E6DB2002DF3DC84F856
:103A20004460BDE8F04100F09BB900002DE9F04191
:103A30000546002700F040FB324E306808B9FFF71A
:103A40001DFD706905424ED1C5B3083568070ED01B
:103A500005F00700C0F108000544680707D05020B2
:103A600080F31188BFF34F8FBFF36F8FFEE72DB345
:103A70007068854237D82348183001460C6801E049
:103A800020460C466168A94202D221680029F7D17C
:103A900031688C4227D00768216801606068083768
:103AA000411B10290FD96019420708D0502080F31C
:103AB0001188BFF34F8FBFF36F8FFEE713E04160B4
:103AC0006560FFF7CFFD61687068401A7060B2688A
:103AD000904200D2B060706901430020C4E9000147
:103AE000F068401CF06001F05DF8780707D05020C6
:103AF00080F31188BFF34F8FBFF36F8FFEE7384617
:103B0000BDE8F081400100200449086818B1086848
:103B1000026D521C0265086870470000EC0000202E
:103B200010B5031F4FF080741C601B1F21F00101B2
:103B30001960191F024B0B60143940380A6010BD20
:103B4000753900082DE9F0418AB0294C4FF0FF3754
:103B5000DFF8A08040E000BF009D9DF804102846DB
:103B6000FCF771FD0646552020706078697808439F
:103B70006070A878A070012E1AD0DEB1FF20E0702E
:103B800004211B48FFF7D2F92071010A6171052158
:103B90008DF8181021688DF80C0017480291002349
:103BA0003A4602A9006800F0D1FB012E14D107E0CB
:103BB0000020E4E70120E0702846FCF771FBDFE716
:103BC0009DF804008DF820000C48079500233A4624
:103BD00007A9006800F0BAFB3A466946D8F8000029
:103BE00000F0C4FC0128B7D00AB0BDE8F0810000A5
:103BF00060050020D4000020D0000020D800002064
:103C000086B000F09DFE154C154E4FF0FF3708258D
:103C1000A0603A4601A9306800F0A8FC0128F8D15C
:103C20009DF8142001A90F48FEF77EFA70B101201B
:103C300000F04EF9009522780323501C20700021DB
:103C40000120FEF769FEFEF78BFEE2E70095227881
:103C50000323501C20702021F2E70000E000002028
:103C6000D000002048020020D0E9013201699A60AA
:103C7000D0E901235A604A68824201D182684A60D1
:103C8000002202610868401E086008687047000052
:103C9000034B036003F15C000860802010607047F4
:103CA000F0100020044B036003F15C0008604FF447
:103CB00080701060704700004C13002000F1080174
:103CC0004FF0FF32C0E90112C160016100210160C3
:103CD000704700210161704730B50B685A1C02D053
:103CE00000F1080202E0026904E0224654682568F7
:103CF0009D42FAD953684B6099608A6051600861AF
:103D00000168491C016030BD42684A6093688B605D
:103D100093685960916008610168491C01607047AF
:103D2000502080F31188BFF34F8FBFF36F8F0A4984
:103D30004868401C486001280CD10848006810F011
:103D4000FF0F07D0502080F31188BFF34F8FBFF3D0
:103D50006F8FFEE7704700006001002004ED00E077
:103D60000849486828B1401E486001D180F3118895
:103D70007047502080F31188BFF34F8FBFF36F8FD0
:103D8000FEE700006001002070B500282AD0164D23
:103D9000A0F1080460686969084207D1502080F3E7
:103DA0001188BFF34F8FBFF36F8FFEE722683AB1E0
:103DB000502080F31188BFF34F8FBFF36F8FFEE762
:103DC0008843606000F078F960686968084468605A
:103DD0002046FFF747FC2869401C2861BDE8704079
:103DE00000F0E0BE70BD0000400100204FF0E02078
:103DF00000210161816105494FF47A720968B1FBC4
:103E0000F2F1491E41610721016170471000002055
:103E100010B5FCF721FA114910280ED300F1E0206B
:103E200090F8F0030A78904207D2502080F311886E
:103E3000BFF34F8FBFF36F8FFEE7094800688968B3
:103E400000F4E060884207D9502080F31188BFF366
:103E50004F8FBFF36F8FFEE710BD000060010020A1
:103E60000CED00E010B5084B002200BF53F83240C3
:103E70001CB1521C082AF9D310BD43F8321003EBD1
:103E8000C201486010BD0000D40A002070B515467C
:103E90000E460446FFF744FF94F944100020491CE5
:103EA00001D184F8440094F94510491C01D184F8EB
:103EB0004500FFF755FFA06B28B92A46314604F1AB
:103EC000240000F051F82046BDE87040FFF778BDAF
:103ED00010B5020014D00F48006B38B1502080F3A9
:103EE0001188BFF34F8FBFF36F8FFEE700F0E4F848
:103EF00000211046FFF79CF900F054FE002807D17E
:103F000005494FF080500860BFF34F8FBFF36F8FAC
:103F100010BD0000EC00002004ED00E002490A6A38
:103F20000260C96841607047EC000020014901202F
:103F3000C8617047EC00002010B50C4650B109492B
:103F400009681831FFF7C8FE2046BDE8104001217E
:103F5000FFF76EB9502080F31188BFF34F8FBFF386
:103F60006F8FFEE7EC00002070B514460D4668B177
:103F70000A4909681831FFF7C7FE0CB14FF0FF3549
:103F800021462846BDE87040FFF752B9502080F323
:103F90001188BFF34F8FBFF36F8FFEE7EC00002057
:103FA00070B504003ED0226DA2B1E06C884200D30F
:103FB0000146E06A884235D0012A33D11A4D2A6879
:103FC00094420FD1502080F31188BFF34F8FBFF37D
:103FD0006F8FFEE7502080F31188BFF34F8FBFF340
:103FE0006F8FFEE7E162A269002A02DBC1F13801AE
:103FF000A1610E4E00EB8000616906EB80008142FA
:1040000010D1201DFFF730FEE06A2969884200D9EF
:10401000286100EB800006EB8000211DBDE87040A8
:10402000FFF772BE70BD0000EC000020140B0020F2
:1040300030B587B00024039405AA04A903A804940A
:10404000FFF726FEDDE903010094CDE9011000230E
:1040500015A11748059A00F048FC164D0028E862A3
:104060001FD000F01BFE012809D0401C19D15020A0
:1040700080F31188BFF34F8FBFF36F8FFEE750209F
:1040800080F31188BFF34F8FBFF36F8F4FF0FF3076
:10409000A86201206861EC6007B0BDE8304000F024
:1040A00045B807B030BD000049444C450000000051
:1040B000C9340008EC0000200248016B491C016370
:1040C00070470000EC000020164810B5016B11B1DC
:1040D0000121C16110BD0021C1610169124A01E0E5
:1040E000B9B1491E01EB810352F82330002BF7D000
:1040F00001EB810302EB830202F1080453685B6861
:104100005360A34201D15B685360DA6802600161C9
:1041100010BD502080F31188BFF34F8FBFF36F8F16
:10412000FEE70000EC000020140B00201CB526491F
:1041300008780190FF20087008788DF800009DF83D
:1041400000009DF8002000F0F000904207D05020C1
:1041500080F31188BFF34F8FBFF36F8FFEE79DF899
:1041600000001A4C00F0500020700720A06005E00D
:104170009DF8002052008DF80020401E9DF8002080
:104180001206F5D4A060032807D0502080F31188D0
:10419000BFF34F8FBFF36F8FFEE74FF44070A06007
:1041A000019808700A48016841F4700101600168D3
:1041B00041F070410160FFF719FE00206060FCF7DC
:1041C00015F800201CBD000000E400E060010020A4
:1041D00020ED00E010B5502080F31188BFF34F8F21
:1041E000BFF36F8F00F0C6FB18B104494FF0805049
:1041F0000860002080F3118810BD000004ED00E08D
:1042000038B50B46002200901146012000F026F838
:104210000446FFF789F9204638BDF8B517460E4623
:10422000050013D005FB06F05030FFF7FFFB04003C
:104230000AD0002084F8460004F150023B46314683
:1042400028460094FFF77CF92046F8BD502080F303
:104250001188BFF34F8FBFF36F8FFEE738B5049D12
:1042600018B153B1CAB181B120E0502080F3118858
:10427000BFF34F8FBFF36F8FFEE7502080F311889D
:10428000BFF34F8FBFF36F8FFEE7502080F311888D
:10429000BFF34F8FBFF36F8FFEE739B1502080F32C
:1042A0001188BFF34F8FBFF36F8FFEE750241C467A
:1042B000012384F846302B460094FFF741F920464D
:1042C00038BD000070B50D46040025D0FFF728FD6D
:1042D000D4E90F20216802FB0011A1600021A16335
:1042E000216861600A46D4E90F01401E00FB0121EC
:1042F000E16021464FF0FF3001F8440F487004F1AF
:1043000010008DB1FFF7DAFC04F12400FFF7D6FCB2
:10431000FFF726FD012070BD502080F31188BFF308
:104320004F8FBFF36F8FFEE721690029F0D000F0B7
:1043300001FC0028ECD004494FF080500860BFF326
:104340004F8FBFF36F8FE3E704ED00E02DE9FF47E8
:1043500082B01D468A464FF00008040003D0BAF12F
:10436000000F08D011E0502080F31188BFF34F8F69
:10437000BFF36F8FFEE7206C38B1502080F31188B7
:10438000BFF34F8FBFF36F8FFEE7022D0AD1E06BB3
:10439000012807D0502080F31188BFF34F8FBFF35F
:1043A0006F8FFEE700F0D2FA3F4F4FF000094FF059
:1043B000805648B9049838B1502080F31188BFF373
:1043C0004F8FBFF36F8FFEE7FFF7AAFCA06BE16B87
:1043D000884207D3022D05D00498D0B1B8F1000F60
:1043E0001AD01EE02A4651462046FEF7F6FF616AC3
:1043F00019B104F1240000F09DFB20B13E60BFF331
:104400004F8FBFF36F8FFFF7ABFC012006B0BDE805
:10441000F087FFF7A5FC22E06846FFF77FFD4FF02D
:104420000108FFF79DFCFFF747FEFFF779FC94F9C1
:104430004400401C01D184F8449094F94500401C8C
:1044400001D184F84590FFF78BFC04A9684600F081
:10445000E5F930B12046FFF7B3FA00F0A3FB0020E6
:10446000D4E7FFF75DFCA06BE16B884213D1FFF747
:1044700077FC04F110000499FFF75EFD2046FFF77A
:104480009FFA00F08FFB00289ED13E60BFF34F8F54
:10449000BFF36F8F98E7FFF763FC2046FFF790FAB2
:1044A00000F080FB90E7000004ED00E02DE9F0470C
:1044B0001F4690468946040003D0B9F1000F08D08A
:1044C00011E0502080F31188BFF34F8FBFF36F8F3F
:1044D000FEE7206C38B1502080F31188BFF34F8F76
:1044E000BFF36F8FFEE7022F0AD1E06B012807D0E0
:1044F000502080F31188BFF34F8FBFF36F8FFEE71B
:10450000FFF786FC5020EFF3118680F31188BFF38C
:104510004F8FBFF36F8FA06BE16B884206D3022FE2
:1045200004D0002086F31188BDE8F08794F9455047
:10453000A06B3A4649462046FEF74FFF681C04D060
:104540006D1C84F845500120ECE7606A0028FAD021
:1045500004F1240000F0EEFA0028F4D0B8F1000FC6
:10456000F1D00121C8F80010EDE700002DE9F74770
:10457000002683B08A46040003D0BAF1000F08D0A9
:1045800011E0502080F31188BFF34F8FBFF36F8F7E
:10459000FEE7206C38B1502080F31188BFF34F8FB5
:1045A000BFF36F8FFEE700F0D1F9DFF8F4804FF032
:1045B00000094FF0805748B9059838B1502080F372
:1045C0001188BFF34F8FBFF36F8FFEE7FFF7A8FB94
:1045D000A56BC5B151462046FEF7ECFE6D1EA563E6
:1045E000206950B104F1100000F0A4FA28B1C8F815
:1045F0000070BFF34F8FBFF36F8FFFF7B1FB012048
:1046000006B0BDE8F087059808B11EB106E0FFF7D7
:10461000A7FB27E06846FFF781FC0126FFF7A0FB18
:10462000FFF74AFDFFF77CFB94F94400401C01D1E1
:1046300084F8449094F94500401C01D184F84590D9
:10464000FFF78EFB05A9684600F0E8F80028204631
:104650000AD0FFF7B5F900F0A5FA2046FFF744F8B5
:104660000028B3D00020CBE7FFF73EF890B104F16B
:1046700024000599FFF760FC2046FFF7A1F900F040
:1046800091FA0028A2D1C8F80070BFF34F8FBFF392
:104690006F8F9BE72046FFF793F900F083FA95E7C9
:1046A00004ED00E02DE9F343002683B00400354615
:1046B00009D0206C78B1502080F31188BFF34F8F60
:1046C000BFF36F8FFEE7502080F31188BFF34F8F49
:1046D000BFF36F8FFEE700F039F9DFF83C814FF050
:1046E00000094FF0805748B9049838B1502080F342
:1046F0001188BFF34F8FBFF36F8FFEE7FFF710FBFB
:10470000A06BC8B1401EA063206810B9FFF7FCF988
:10471000A060206950B104F1100000F00BFA28B13C
:10472000C8F80070BFF34F8FBFF36F8FFFF718FB10
:10473000012005B0BDE8F083049808B166B10FE030
:104740003DB1502080F31188BFF34F8FBFF36F8FBF
:10475000FEE7FFF705FB5DE06846FFF7DFFB01269C
:10476000FFF7FEFAFFF7A8FCFFF7DAFA94F9440026
:10477000401C01D184F8449094F94500401C01D1BB
:1047800084F84590FFF7ECFA04A9684600F046F873
:104790000028204612D0FFF713F900F003FA204654
:1047A000FEF7A2FF0028A9D09DB3FFF7B9FA606A0F
:1047B00050B3206B0068C0F1380126E0FEF794FF8B
:1047C000E0B1206838B9FFF7ABFAA06800F076F9DD
:1047D0000546FFF7C5FA04F124000499FFF7ACFB86
:1047E0002046FFF7EDF800F0DDF9002886D1C8F883
:1047F0000070BFF34F8FBFF36F8F7FE72046FFF747
:10480000DFF800F0CFF979E70021A068FFF7C8FBD7
:104810009FE7FFE700208CE704ED00E02DE9F04181
:104820000C46050011D0C4B1FFF77AFA174BDA68CD
:104830006E682068911B471C17D02F681B6A9F4227
:1048400019D0964217D8012410E0502080F3118827
:10485000BFF34F8FBFF36F8FFEE7502080F31188B7
:10486000BFF34F8FBFF36F8FFEE70024FFF778FA97
:104870002046BDE8F081884205D9401A20602846CC
:10488000FFF74CFBF1E700202060DCE7EC000020A4
:104890002DE9FF5F8346DDE90E87994616468A4675
:1048A0009000FFF7C3F805001CD05C20FFF7BEF8AE
:1048B000040014D00020256384F85900CDE902409B
:1048C000CDE900874B46324651465846FEF74AFE30
:1048D0002046FEF7DBFC012004B0BDE8F09F28462F
:1048E000FFF752FA4FF0FF30F6E7F0B585B0DDE99B
:1048F0000B640A9DA6B1DCB15C27009726630226F3
:1049000084F85960002604AFCDE90246CDE900578E
:10491000FEF728FE2046FEF7B9FC049805B0F0BD6E
:10492000502080F31188BFF34F8FBFF36F8FFEE7E6
:10493000502080F31188BFF34F8FBFF36F8FFEE7D6
:104940000148006870470000EC00002005484169FC
:1049500019B1006B18B10020704701207047022088
:1049600070470000EC0000200148C068704700005C
:10497000EC0000202DE9F0412E4C0027206B28B1DF
:10498000A069401CA0613846BDE8F081E668761C4D
:10499000E66013D1606B006838B1502080F3118855
:1049A000BFF34F8FBFF36F8FFEE7606BA16B616347
:1049B000A063206A401C2062FEF782FFA06ADFF835
:1049C0007880864209D3606B0068A0B1606BC068D4
:1049D000C5686868864211D2A0622068C06A00EB90
:1049E000800158F82100012800D90127E06900283A
:1049F000C9D00127C7E74FF0FF30EDE7281DFFF7CB
:104A000033F9A86A18B105F11800FFF72DF9E86A23
:104A10002169884200D9206100EB800108EB810008
:104A2000291DFFF771F9E86A2168C96A8842CAD36B
:104A30000127C8E7EC000020140B002070B504002B
:104A40004FF0000133D01B4D2868844207D050201E
:104A500080F31188BFF34F8FBFF36F8FFEE7206D98
:104A600038B1401E2065E36CE26A9A421FD040B123
:104A70001DE0502080F31188BFF34F8FBFF36F8F7D
:104A8000FEE7201DFFF7F0F8E06CE062C0F13800AF
:104A9000A061E06A2969884200D92861064900EBD3
:104AA000800001EB8000211DFFF72EF9012108464F
:104AB00070BD0000EC000020140B002070B5040055
:104AC0004FF000002BD0194DE16A2A68D26A91425A
:104AD00026D2A069002804DB2868C06AC0F138002B
:104AE000A061134E01EB8101606906EB81018842F0
:104AF00011D1201DFFF7B8F82868C06AE062296963
:104B0000884200D9286100EB800006EB8000211D5F
:104B1000FFF7FAF802E02868C06AE062012070BD81
:104B2000E16C2A68D26A9142F8D370BDEC00002093
:104B3000140B002070B5C068C46854B104F11800AB
:104B40000646FFF791F8144D286B50B131461348D3
:104B500015E0502080F31188BFF34F8FBFF36F8FA4
:104B6000FEE7201DFFF780F8E06A2969884200D936
:104B700028610B4900EB800001EB8000211DFFF74D
:104B8000C3F8E06A2968C96A884202D90120E8614D
:104B900070BD002070BD0000EC0000209C0F0020C4
:104BA000140B00202DE9F0472C4D00242746286BDC
:104BB00038B1FFF7B5F8286B401E2863286B40B169
:104BC00046E0502080F31188BFF34F8FBFF36F8F03
:104BD000FEE7A968224E0120D1B3A6F5916980466F
:104BE0003068E0B1F068C46804F11800FFF73CF8E1
:104BF000201DFFF739F8E06A2969884200D9286149
:104C000000EB800109EB8100211DFFF77DF8E06AD0
:104C10002968C96A8842E3D3C5F81C80E0E70CB173
:104C2000FEF74EFEAC694CB14FEA0806FFF7A2FE54
:104C300000B1EE61641EF9D10020A861E86938B1C5
:104C40000849012738070860BFF34F8FBFF36F8F04
:104C5000FFF786F83846BDE8F0870000EC0000203A
:104C60009C0F002004ED00E02DE9FC4781461E4624
:104C7000174688462C200A9DFEF7D8FE04000AD06D
:104C8000002084F82800CDE9005433463A464146D6
:104C90004846FEF7BFFC2046BDE8FC8710B586B04D
:104CA000FEF75CFB114C2068B8B100200390049023
:104CB00005AA04A903A8FEF7F5FFDDE903210220F8
:104CC0008DE8070000230AA10B48059AFFF70DFEA7
:104CD000606010B106B0012010BD502080F3118833
:104CE000BFF34F8FBFF36F8FFEE700002801002056
:104CF000546D7220537663009D3900082DE9FF4101
:104D00001E46134602000A9D4FF0000016D0144CB8
:104D10002768002F0FD0CDE900130292062917DA79
:104D2000FFF714FE02284FF000030FD0002269465F
:104D30002068FFF70BFB04B0BDE8F081502080F342
:104D40001188BFF34F8FBFF36F8FFEE72A46EEE760
:104D50000023324669463846FFF7A8FBEBE7000020
:104D60002801002010B504000AD0FEF7D9FF94F8FE
:104D70002800C0070CD00124FEF7F2FF204610BD2A
:104D8000502080F31188BFF34F8FBFF36F8FFEE782
:104D90000024F1E720560008000000000000000099
:104DA00000000000000000000008000018000000E3
:104DB00000000000000000000102020304050607D5
:104DC00008090A0B0C0D0E0F101001020203040556
:104DD000060708090A0B0C0D0E0F1010000000004A
:104DE000000000000102030406070809000000009B
:104DF00001020304000000000000000000000000A9
:104E000000000000000000F8000000000000003377
:104E10003000000000160E00160E0000000000001A
:104E20000000000040C07840C0784000043F040407
:104E30003F040400007088FC08300000001820FFC8
:104E4000211E0000F008F000E018000000211C0303
:104E50001E211E0000F00888700000001E2123247F
:104E600019272110000000160E00000000000000AD
:104E700000000000000000E018040200000000072D
:104E80001820400000020418E00000000040201834
:104E900007000000404080F0804040000202010F07
:104EA00001020200000000F0000000000101011FEB
:104EB00001010100000000000000000000B07000CF
:104EC00000000000000000000000000000010101DF
:104ED000010101010000000000000000003030006E
:104EE0000000000000000000806018040060180648
:104EF0000100000000E010080810E000000F102082
:104F000020100F00001010F8000000000020203FCB
:104F10002020000000700808088870000030282455
:104F200022213000003008888848300000182020F6
:104F300020110E000000C02010F80000000704241B
:104F4000243F240000F80888880808000019212060
:104F500020110E0000E0108888180000000F1120BA
:104F600020110E0000380808C83808000000003F73
:104F7000000000000070880808887000001C2221D2
:104F800021221C0000E010080810E000000031227F
:104F900022110F00000000C0C0000000000000301F
:104FA00030000000000000C0C0000000000080B021
:104FB0007000000000008040201008000001020482
:104FC00008102000404040404040400004040404D9
:104FD0000404040000081020408000000020100895
:104FE00004020100007048080808F00000000030CA
:104FF00036010000C030C828E810E0000718272458
:1050000023140B000000C038E0000000203C230205
:105010000227382008F8888888700000203F202068
:1050200020110E00C030080808083800071820209A
:105030002010080008F808080810E000203F202091
:1050400020100F0008F88888E8081000203F202072
:105050002320180008F88888E8081000203F200066
:1050600003000000C030080808380000071820209E
:10507000221E020008F808000008F808203F21015D
:1050800001213F20000808F8080800000020203F08
:105090002020000000000808F8080800C080808078
:1050A0007F00000008F888C028180800203F200171
:1050B0002638200008F8080000000000203F2020CB
:1050C0002020300008F8F800F8F80800203F003FE2
:1050D000003F200008F830C00008F808203F2000FA
:1050E00007183F00E01008080810E0000F1020200B
:1050F00020100F0008F808080808F000203F2101E0
:1051000001010000E01008080810E0000F18242436
:1051100038504F0008F8888888887000203F2000A9
:10512000030C30200070880808083800003820215F
:1051300021221C00180808F8080818000000203F69
:105140002000000008F808000008F808001F2020D0
:1051500020201F000878880000C8380800000738A1
:105160000E010000F80800F80008F800033C0700F2
:10517000073C0300081868808068180820302C035A
:10518000032C30200838C800C83808000000203F31
:105190002000000010080808C83808002038262120
:1051A00020201800000000FE020202000000007F24
:1051B00040404000000C30C0000000000000000132
:1051C0000638C00000020202FE000000004040401D
:1051D0007F000000002010080408102000000000DC
:1051E00000000000000000000000000080808080BF
:1051F00080808080000204080000000000000000A1
:10520000000000000000808080800000001924223F
:1052100022223F2008F8008080000000003F11207B
:1052200020110E000000008080800000000E112080
:1052300020201100000000808088F800000E11205E
:1052400020103F200000808080800000001F22226C
:1052500022221300008080F0888888180020203FD8
:10526000202000000000808080808000006B9494EB
:105270009493600008F8008080800000203F2100A7
:1052800000203F2000809898000000000020203F70
:1052900020200000000000809898000000C080805E
:1052A000807F000008F8000080808000203F2402FA
:1052B0002D302000000808F8000000000020203FEA
:1052C000202000008080808080808000203F20009F
:1052D0003F20003F008080008080000000203F21B0
:1052E00000203F200000808080800000001F2020E0
:1052F00020201F00808000808000000080FFA1200F
:1053000020110E000000008080808000000E11201F
:1053100020A0FF80808080008080800020203F21AE
:105320002000010000008080808080000033242461
:1053300024241900008080E0808000000000001F0D
:10534000202000008080000000808000001F2020BE
:1053500020103F20808080000080808000010E307F
:105360000806010080800080008080800F300C03E0
:105370000C300F0000808000808080000020312EE3
:105380000E312000808080000080808080818E70BF
:105390001806010000808080808080000021302C71
:1053A0002221300000000000807C0202000000008A
:1053B000003F404000000000FF000000000000002F
:1053C000FF0000000002027C800000000040403F1F
:1053D00000000000008040408000008000000000CD
:1053E000000101000000000000000000002F00008C
:1053F00000000700070000147F147F1400242A7F98
:105400002A12002313086462003649552250000016
:105410000007000000001C224100000041221C0087
:105420000014083E08140008083E0808000000A008
:105430006000000808080808000060600000002004
:1054400010080402003E5149453E0000427F4000E2
:10545000004261514946002141454B310018141268
:105460007F10002745454539003C4A494930000135
:105470007109050300364949493600064949291E84
:1054800000003636000000005636000000081422E6
:1054900041000014141414140000412214080002E6
:1054A00001510906003E4955592E007C1211127C0B
:1054B000007F49494936003E41414122007F414138
:1054C000221C007F49494941007F09090901003E2A
:1054D0004149497A007F0808087F0000417F410068
:1054E000002040413F01007F08142241007F4040DE
:1054F0004040007F020C027F007F0408107F003EC6
:105500004141413E007F09090906003E4151215EAB
:10551000007F091929460046494949310001017FA8
:105520000101003F4040403F001F2040201F003F3E
:105530004038403F006314081463000708700807F0
:1055400000615149454300007F41410000020408C9
:105550001020000041417F000004020102040040CD
:1055600040404040000001020400002054545478A0
:10557000007F4844443800384444442000384444C0
:10558000487F00385454541800087E09010200185E
:10559000A4A4A47C007F080404780000447D40009B
:1055A000004080847D00007F102844000000417F7F
:1055B0004000007C04180478007C0804047800385B
:1055C0004444443800FC242424180018242418FCE3
:1055D000007C0804040800485454542000043F444C
:1055E0004020003C4040207C001C2040201C003C0F
:1055F0004030403C004428102844001CA0A0A07C5F
:10560000004464544C440000087F41000000007FC7
:1056100000000000417F0800000804081008000096
:1056200064656661756C745461736B004C56000858
:10563000000000206C01000028010008B45600089A
:105640006C0100209C480000840100084132018266
:10565000100315127A132930E508414443293931E2
:10566000320322241420013C080B110855415254E6
:105670005F73656E64241AB8245B453B244009645B
:105680006174615F70726F8A02241ABC24136D2FDB
:10569000400E08436F6E74726F6C5F7461736B724F
:1056A0008029241AC024012C0B2C540A3001501AD2
:0456B000AA0141000A
:04000005080000ED02
:00000001FF
